:100000000C9472000C9494000C9494000C94940042
:100010000C9494000C9494000C9494000C94940010
:100020000C9494000C9494000C9494000C94940000
:100030000C9494000C9494000C9494000C949400F0
:100040000C9494000C9494000C9494000C949400E0
:100050000C9494000C9494000C9494000C949400D0
:100060000C9494000C9494000C9494000C941E0135
:100070000C9494000C9494000C9494000C949400B0
:100080000C9494000C9494000C9494000C949400A0
:100090000C9494000C9494000C9494000C94940090
:1000A0000C9494000C9494000C9494000C94940080
:1000B0000C9494000C9494000C9494000C94940070
:1000C0000C9494000C9494000C9494000C94940060
:1000D0000C9494000C9494000C9494000C94940050
:1000E0000C94940011241FBECFEFD1E2DEBFCDBF30
:1000F00000E00CBF12E0A0E0B2E0E8E2F3E000E0D4
:100100000BBF02C007900D92AE30B107D9F71BBEEE
:1001100012E0AEE0B2E001C01D92A139B107E1F7F3
:100120000E945C010C9492010C9400008FEF80936C
:100130000B0180930A01089510920B0110920E0298
:1001400008958FEF80930B0180930E02089521E0B4
:1001500030E002C0220F331F8A95E2F7209580918C
:100160000E02282320930E0220930B01089521E014
:1001700030E002C0220F331F8A95E2F780910E0211
:10018000822B80930E0280930B01089580958093BB
:100190000E0280930B0108951092C50087E08093B2
:1001A000C400E0ECF0E0808182608083E1ECF0E06C
:1001B0008081886080838081806480830895BC0111
:1001C00080910B0290910C0281309105E1F481E164
:1001D00092E00E948B011092100210920F02109276
:1001E0000C0210920B0280910F0290911002FC0100
:1001F000EF5EFD4F208101969093100280930F02D5
:100200002093C60018C020910F0230911002E09197
:100210000F02F0911002EF5EFD4FDF010D90002004
:10022000E9F7CD0101978E1B9F0B820F931F8F5E05
:100230009D4F0E948B0181E090E008951F920F92E4
:100240000FB60F920BB60F9211242F938F939F939B
:10025000EF93FF93E0910F02F0911002EF5EFD4FDC
:100260002081222339F481E090E090930C02809366
:100270000B0216C02A3049F4E0910F02F0911002EF
:10028000EF5EFD4F8DE0808309C080910F02909159
:10029000100201969093100280930F022093C600E3
:1002A000FF91EF919F918F912F910F900BBE0F9027
:1002B0000FBE0F901F901895CF93DF9300D00F9231
:1002C0000F92CDB7DEB719821A821B821C820E9460
:1002D000CC00789403E010E011C02983CE01019690
:1002E0002D830E94DF002D812F5F2B35B1F780E039
:1002F00092E00E94DF000150104011F021E4EDCFA8
:1003000080910B0290910C020097D1F382E092E071
:100310000E94DF00FFCFFB01DC0101900D92002065
:08032000E1F70895F894FFCF06
:0E0328000A00456E64202121210A0001000018
:00000001FF
