:100000000C9472000C9494000C9494000C94940042
:100010000C9494000C9494000C9494000C94940010
:100020000C9494000C9494000C9494000C94940000
:100030000C9494000C9494000C9494000C949400F0
:100040000C9494000C9494000C9494000C949400E0
:100050000C9494000C9494000C9494000C949400D0
:100060000C9494000C9426030C9494000C94F702C6
:100070000C9494000C9494000C9494000C949400B0
:100080000C9494000C9494000C9494000C949400A0
:100090000C9494000C9494000C9494000C94940090
:1000A0000C9494000C9494000C9494000C94940080
:1000B0000C9494000C9494000C9494000C94940070
:1000C0000C9494000C9494000C9494000C94940060
:1000D0000C9494000C9494000C9494000C94940050
:1000E0000C94940011241FBECFEFD1E2DEBFCDBF30
:1000F00000E00CBF12E0A0E0B2E0EAEAF3E100E0C9
:100100000BBF02C007900D92AE39B107D9F71BBEE5
:1001100014E0AEE9B2E001C01D92A73BB107E1F7E0
:100120000E9465040C94D3090C940000CF93DF93D4
:10013000FC0162E070E00E94C004EB0122E030E0CC
:1001400008C0CF01B9010E94C004009741F02F5FA1
:100150003F4FC217D307ACF781E090E002C080E0C8
:1001600090E0DF91CF910895CF92DF92EF92FF92CE
:100170000F931F93CF93DF93009721F00E941606F1
:100180007C0104C090EDE92E97E0F92EC2E0D0E0AA
:1001900000E010E080E0C82E82E0D82E16C0CE012C
:1001A0000E949600009781F00F5F1F4F00D00F92C2
:1001B000EDB7FEB7D282C182D483C3830E94A50665
:1001C0000F900F900F900F902196EC16FD063CF7C4
:1001D00000D00F928AE192E0EDB7FEB7928381835F
:1001E000148303830E94A5060F900F900F900F9029
:1001F000DF91CF911F910F91FF90EF90DF90CF9003
:100200000895EF92FF921F93CF93DF93CDB7DEB7A0
:1002100028970FB6F894DEBF0FBECDBF009719F038
:10022000FC01108101C011E624E2E22E22E0F22E50
:100230000F920F92EDB7FEB7F282E1820E94A506FF
:100240000F900F904091B1045091B204CE010196ED
:1002500068E070E00E9471060097A1F00E945201D0
:100260002981FC0120831182183619F0143739F4E2
:1002700003C00E945A01DCCF0E946F01D9CF0E94B7
:100280008601D6CF0E94BD010E94EA0128960FB6D2
:10029000F894DEBF0FBECDBFDF91CF911F91FF90CD
:1002A000EF90089584E090E00E94E70408950E9492
:1002B0007D050895FC0180919E0290919F02009718
:1002C00039F4F0939F02E0939E0213821282089504
:1002D00093838283F0939F02E0939E020895E091BE
:1002E0009E02F0919F02309731F490939F02809389
:1002F0009E0208C0F9012281338121153105D1F711
:1003000093838283FC01138212820895CF93DF933B
:10031000FC0120919E0230919F022115310531F0A0
:1003200040815181D901C0E0D0E00FC090939F027D
:1003300080939E02138212821DC012968D919C9111
:100340001397ED01009739F0DC018D919C91119785
:100350008417950794F3209739F433832283F0931D
:100360009F02E0939E0206C08A819B8193838283D1
:10037000FB83EA83DF91CF9108950F931F93CF936F
:10038000DF938AE090E00E94B706C0919E02D09170
:100390009F0207E212E013C000D00F92EDB7FEB744
:1003A0001283018388819981948383830E94A506A7
:1003B0000A80DB81C02D0F900F900F900F90209737
:1003C00059F78AE090E00E94B706DF91CF911F9124
:1003D0000F91089509C0FC012281338130939F025F
:1003E00020939E020E947D0580919E0290919F0223
:1003F000009789F708951092A9031092A80310920C
:10040000A7031092A6031092AB031092AA031092B6
:10041000A5021092A4020895482F2091AA033091BA
:10042000AB032F5F3F4FC90160E071E00E94C00441
:100430009C018091A4029091A5022817390759F0D8
:100440003093AB032093AA0324553C4FF90140831A
:1004500081E090E0089580E090E008958091A4020A
:100460009091A5022091AA033091AB032817390778
:1004700079F0019660E071E00E94C0049093A502BB
:100480008093A40284559C4FFC01808190E00895E4
:1004900080E090E00895482F2091A8033091A903AF
:1004A0002F5F3F4FC90160E071E00E94C0049C01D2
:1004B0008091A6039091A7032817390759F030932C
:1004C000A9032093A8032A553D4FF901408381E0F9
:1004D00090E0089580E090E008958091A6039091C7
:1004E000A7032091A8033091A9032817390779F0B1
:1004F000019660E071E00E94C0049093A70380938E
:10050000A6038A559D4FFC01808190E0089580E00C
:1005100090E00895F8940E942E0278948823D1F3F5
:10052000843011F090E008958FEF9FEF0895CF93FE
:10053000C82F8A3019F48DE00E949702F8948091B8
:10054000AC04882359F4C093C60081E08093AC04C6
:100550000AC0789486EF8A95F1F7F8948C2F0E9460
:100560004B020097B1F3789481E090E0CF91089529
:100570008CE692E09093B2048093B1048AE792E013
:100580009093B4048093B3040E94FB011092AC04D6
:100590001092C50087E08093C400E0ECF0E0808119
:1005A00082608083E1ECF0E08081886080838081DC
:1005B0008064808380818061808380818068808383
:1005C0000895CF93C82F8A3019F48DE00E94E1027C
:1005D0008091AC04882331F4C093C60081E08093FD
:1005E000AC0403C08C2F0E944B02CF9108951F9240
:1005F0000F920FB60F920BB60F9211242F933F93C9
:100600004F935F936F937F938F939F93AF93BF931A
:10061000EF93FF930E946D02882319F41092AC04AB
:1006200002C08093C600FF91EF91BF91AF919F915F
:100630008F917F916F915F914F913F912F910F908B
:100640000BBE0F900FBE0F901F9018951F920F9228
:100650000FB60F920BB60F9211242F933F934F9327
:100660005F936F937F938F939F93AF93BF93CF933A
:10067000EF93FF93C091C600C43031F0CD3009F440
:10068000CAE08C2F0E94E1028C2F0E940C02FF9185
:10069000EF91CF91BF91AF919F918F917F916F918A
:1006A0005F914F913F912F910F900BBE0F900FBE16
:1006B0000F901F901895EF92FF920F931F93CF9377
:1006C000DF938AE090E00E94B706C091A002D0912B
:1006D000A10200E010E088E8E82E82E0F82E20C0B9
:1006E00088819981080F191F00D000D0EDB7FEB79F
:1006F0003196ADB7BEB71296FC92EE9211979383E6
:100700008283158304830E94A5060C84DD85C02D99
:100710008DB79EB706960FB6F8949EBF0FBE8DBFDD
:100720002097F1F68AE090E00E94B706DF91CF9122
:100730001F910F91FF90EF90089509C0FC0124854F
:1007400035853093A1022093A0020E947D058091FF
:10075000A0029091A102009789F708958EE090E0A1
:100760000E94E7040895EF92FF920F931F93CF9397
:10077000DF93F82EE92E8B010E94AE03EC01DC0121
:100780001296EF2DFE2D8AE001900D928150E1F737
:1007900019830883E091A002F091A102309729F417
:1007A000D093A102C093A0022FC040E050E020E00F
:1007B00030E001C0FD0180819181280F391F201791
:1007C000310734F4A485B585AF01109799F701C0BE
:1007D000DF014115510579F48D919C911197801B92
:1007E000910B11969C938E93BD87AC87D093A102F9
:1007F000C093A00224C0109751F4021B130B19835D
:100800000883FA01D587C4871D861C8618C08D9180
:100810009C911197B901681B790B9801261B370B26
:10082000398328838D919C911197821B930B11968C
:100830009C938E93FA01D587C487BD87AC87DF91DF
:10084000CF911F910F91FF90EF9008950F931F93F9
:10085000CF93DF93CDB7DEB762970FB6F894DEBFC4
:100860000FBECDBF03E912E00F920F92EDB7FEB7B6
:10087000128301830E94A5060F900F904091B1044E
:100880005091B204CE01019668E070E00E947106BA
:10089000009761F0CE0101960E941606BC010097F8
:1008A00029F0CE0109960E94B303DECF0E945B03BC
:1008B0000E949D0362960FB6F894DEBF0FBECDBFB7
:1008C000DF91CF911F910F910895CF93DF93CDB713
:1008D000DEB7C058D0400FB6F894DEBF0FBECDBF14
:1008E0000E94B802789484E290E00E94B70640919A
:1008F000B1045091B204CE01019660E870E00E940C
:1009000071060097C1F1CE0101966EE272E00E947D
:1009100034068C01009739F380E090E06EE272E0DB
:100920000E9434067C01CE01019663E372E00E94CE
:100930003906009721F4C7010E94B400D4CFCE013C
:10094000019669E372E00E943906009721F4C7011D
:100950000E940101C8CFC8016EE372E00E9439060F
:10096000009721F4C7010E942604BDCF84E492E0E1
:100970000E94BE06B8CF87E592E00E94BE06FFCF78
:1009800097FB092E07260AD077FD04D00CD006D09D
:1009900000201AF4709561957F4F0895F6F79095B1
:1009A00081959F4F0895AA1BBB1B51E107C0AA1F49
:1009B000BB1FA617B70710F0A61BB70B881F991F00
:1009C0005A95A9F780959095BC01CD010895CF93D4
:1009D000DF93AC018230910510F442E050E0E091E9
:1009E000AF04F091B00420E030E0A0E0B0E024C01B
:1009F0008081918184179507D0F08417950771F451
:100A000082819381109729F013969C938E9312976D
:100A10002CC09093B0048093AF0427C021153105FA
:100A200019F08217930718F49C01BD01EF01928120
:100A30008381DF01E92FF82F3097D1F62115310599
:100A4000F9F0C901841B950B8430910580F48A81EB
:100A50009B816115710521F0FB019383828304C0A2
:100A60009093B0048093AF04FE01329642C0FE0121
:100A7000E80FF91F4193519302979983888339C0F6
:100A80008091AD049091AE04009741F48091990259
:100A900090919A029093AE048093AD0420919702B6
:100AA000309198022115310541F42DB73EB7809160
:100AB0009B0290919C02281B390BE091AD04F091B0
:100AC000AE04E217F30798F42E1B3F0B24173507EB
:100AD00070F0CA0102962817390748F08E0F9F1F41
:100AE0009093AE048093AD044193519302C0E0E033
:100AF000F0E0CF01DF91CF9108950F931F93CF9333
:100B0000DF939C01009709F48CC0DC0112971396C7
:100B10001C921E9212976091AF047091B0046115FF
:100B2000710589F48D919C911197820F931F2091EB
:100B3000AD043091AE042817390769F5B093AE04BF
:100B4000A093AD046EC0FB0140E050E001C0FC0189
:100B5000EA17FB0730F482819381AF010097B9F760
:100B60001FC0E9012297FB83EA8308811981C9012B
:100B7000800F911F8E179F0759F480819181800FFC
:100B8000911F029699838883828193819B838A83B4
:100B90004115510529F4B093B004A093AF0441C0AE
:100BA000FA01B383A283C191D191EC0FFD1FAE175F
:100BB000BF0781F4F901929182918C0F9D1F0296DB
:100BC000DA0111969C938E938281938113969C9364
:100BD0008E931297E0E0F0E002C0FB01BC01DB0164
:100BE00012968D919C9113970097B9F7CB010296BD
:100BF0002D913C911197820F931F2091AD0430915C
:100C0000AE042817390769F4309729F41092B0041C
:100C10001092AF0402C0138212827093AE046093EC
:100C2000AD04DF91CF911F910F910895FC018827AA
:100C30009927E89421912032E9F3293010F02E30E1
:100C4000C8F32B3241F02D3239F4689404C00E946D
:100C50006906820F911D219120532A30C0F31EF4A2
:100C6000909581959F4F089542EA52E00E94420676
:100C70000895FB01DC018D91019080190110D9F3D9
:100C8000990B0895FA01A191B081009719F410977A
:100C9000E1F0CD01DC01CD010D90002011F4C00187
:100CA00013C0FB012191222319F02015D9F7F3CFAE
:100CB000FB012191201519F41E92119606C02223E2
:100CC000C1F70D900020A1F7D001FA01A193B083E4
:100CD00008957AE0979F902D879F802D910D112484
:100CE0000895CF92DF92EF92FF920F931F93CF93CD
:100CF000DF938C016A01FA01838180FF1AC0161606
:100D00001706BCF47B01E8010EC0C6010E94090968
:100D1000FFEF8F3F9F0769F089930894E108F1087E
:100D20008A30910521F021E0E216F10471F7188272
:100D300002C000E010E0C801DF91CF911F910F9138
:100D4000FF90EF90DF90CF900895CF93DF93CDB7D2
:100D5000DEB7FE013696619171918091B304909156
:100D6000B404AF010E94EC06DF91CF910895609129
:100D7000B3047091B4040E94490908950F931F931E
:100D8000CF93DF938C01E091B304F091B40483819D
:100D900081FF1AC0C0E0D0E005C01995009711F09E
:100DA000CFEFDFEFF80181918F016091B304709173
:100DB000B404DB011896ED91FC911997882369F72B
:100DC0008AE01995009711F0CFEFDFEFCE01DF91A8
:100DD000CF911F910F9108952F923F924F925F9262
:100DE0006F927F928F929F92AF92BF92CF92DF923B
:100DF000EF92FF920F931F93CF93DF93CDB7DEB7A0
:100E00002D970FB6F894DEBF0FBECDBF3C017D8796
:100E10006C875A01FC0117821682838181FFC8C149
:100E20002E010894411C511CF3019381EC85FD8532
:100E300093FD859193FF8191FD87EC87882309F4C9
:100E4000B3C1853241F493FD859193FF8191FD8774
:100E5000EC87853229F490E0B3010E944909E4CF80
:100E6000FF24EE2410E01032B0F48B3269F08C32A3
:100E700028F4803251F0833271F40BC08D3239F096
:100E8000803349F411602CC01260146029C01860CE
:100E900027C0106125C017FD2EC0282F20532A30EF
:100EA00098F416FF08C08F2D880FF82EFF0CFF0C4A
:100EB000F80EF20E15C08E2D880FE82EEE0CEE0CFB
:100EC000E80EE20E10620CC08E3221F416FD6CC1E9
:100ED000106406C08C3611F4106802C0883659F4CC
:100EE000EC85FD8593FD859193FF8191FD87EC87CE
:100EF000882309F0B8CF982F9554933018F090526A
:100F0000933038F424E030E0A20EB31E3FE339837F
:100F10000FC0833631F0833781F0833509F05AC032
:100F200022C0F5018081898322E030E0A20EB31E49
:100F300021E0C22ED12C420114C092E0292E312C86
:100F40002A0C3B1CF5018080918016FF03C06F2D99
:100F500070E002C06FEF7FEFC4010E94FE086C01D9
:100F600051011F7715C082E0282E312C2A0C3B1C22
:100F7000F5018080918016FF03C06F2D70E002C0E4
:100F80006FEF7FEFC4010E94F3086C0110685101FC
:100F900013FD1CC006C080E290E0B3010E94490925
:100FA000EA948E2D90E0C816D906A8F30FC0F4017C
:100FB00017FD859117FF81914F0190E0B3010E94C9
:100FC0004909E110EA940894C108D108C114D10478
:100FD00071F7E7C0843611F0893651F5F50117FF36
:100FE00007C080819181A281B38124E030E008C0F4
:100FF00080819181AA2797FDA095BA2F22E030E049
:10100000A20EB31E012F0F76B7FF08C0B095A095B2
:10101000909581959F4FAF4FBF4F0068BC01CD01A8
:10102000A2012AE030E00E947509D82ED4183FC0F2
:10103000853721F41F7E2AE030E020C0197F8F36EB
:10104000A9F0803720F4883509F0AEC00BC0803796
:1010500021F0883709F0A8C001C0106114FF09C051
:10106000146007C014FF08C0166006C028E030E016
:1010700005C020E130E002C020E132E0F50117FFB9
:1010800007C0608171818281938144E050E006C095
:101090006081718180E090E042E050E0A40EB51ED6
:1010A000A2010E947509D82ED418012F0F7706FFD0
:1010B00009C00E7FDF1430F404FF06C002FD04C037
:1010C0000F7E02C01D2D01C01F2D802F90E004FF58
:1010D0000CC0FE01ED0DF11D2081203311F4097EBD
:1010E00009C002FF06C01E5F05C086789070009799
:1010F00009F01F5F802E992403FD12C000FF0DC070
:10110000FD2C1E1550F4FE0CF11A1E2D06C080E2B7
:1011100090E0B3010E9449091F5F1E15C0F304C08F
:101120001E1510F4E11A01C0EE2484FE0FC080E306
:1011300090E0B3010E94490982FE1FC081FE03C0F6
:1011400088E590E010C088E790E00DC0C401867883
:101150009070009791F081FC02C080E201C08BE2A8
:1011600007FD8DE290E0B3010E94490906C080E3CB
:1011700090E0B3010E944909FA94DF14C0F3DA94B5
:10118000F201ED0DF11D808190E0B3010E9449094B
:10119000DD20A9F706C080E290E0B3010E94490972
:1011A000EA94EE20C1F740CEF3018681978102C018
:1011B0008FEF9FEF2D960FB6F894DEBF0FBECDBF19
:1011C000DF91CF911F910F91FF90EF90DF90CF9023
:1011D000BF90AF909F908F907F906F905F904F9057
:1011E0003F902F900895FC010590615070400110D0
:1011F000D8F7809590958E0F9F1F0895FC01615040
:10120000704001900110D8F7809590958E0F9F1F28
:101210000895CF93DF93EC012B8120FF35C026FF8B
:1012200009C02F7B2B838E819F8101969F838E83A4
:101230008A8128C022FF0FC0E881F9818081992727
:1012400087FD9095009719F420622B831DC031967D
:10125000F983E88311C0EA85FB85CE01199597FFD4
:101260000BC02B813FEF8F3F930711F480E101C04A
:1012700080E2822B8B8308C02E813F812F5F3F4FFE
:101280003F832E8390E002C08FEF9FEFDF91CF91DD
:1012900008950F931F93CF93DF938C01EB018B8104
:1012A00081FF1BC082FF0DC02E813F818C819D81FB
:1012B0002817390764F4E881F9810193F983E883F9
:1012C00006C0E885F985802F1995009731F48E8145
:1012D0009F8101969F838E8302C00FEF1FEFC8018D
:1012E000DF91CF911F910F910895FA01AA2728301D
:1012F00051F1203181F1E8946F936E7F6E5F7F4FE3
:101300008F4F9F4FAF4FB1E03ED0B4E03CD0670F5E
:10131000781F891F9A1FA11D680F791F8A1F911DB1
:10132000A11D6A0F711D811D911DA11D20D009F401
:1013300068943F912AE0269F11243019305D319343
:10134000DEF6CF010895462F4770405D4193B3E02C
:101350000FD0C9F7F6CF462F4F70405D4A3318F0D3
:10136000495D31FD4052419302D0A9F7EACFB4E084
:10137000A6959795879577956795BA95C9F700973C
:101380006105710508959B01AC010A2E06945795DD
:10139000479537952795BA95C9F7620F731F841F34
:0A13A000951FA01D0895F894FFCFDB
:1013AA0025642069732061207072696D65206E75ED
:1013BA006D626572202121210A00636F756E743D8A
:1013CA0025640A003E20002D2D3E256320000A0DCB
:1013DA000920007072696D65006C69737400746924
:1013EA006D657200556E6B6E6F776E20636F6D6DF3
:1013FA00616E642E2E2E006C6F676F75742C2067D9
:10140A006F6F6420627965202121210000000001AC
:10141A000000000000008A02000000000002000034
:10142A0000009702000000002D2D3E256428256447
:0E143A002920003E3E20000000B704200000E4
:00000001FF
