:100000000C9472000C9494000C9494000C94940042
:100010000C9494000C9494000C9494000C94940010
:100020000C9494000C9494000C9494000C94940000
:100030000C9494000C9494000C9494000C945B0623
:100040000C9494000C9494000C9494000C949400E0
:100050000C9494000C9494000C9494000C949400D0
:100060000C948F070C942C070C9494000C94FD06B0
:100070000C9494000C94AB000C9494000C94940099
:100080000C9494000C9494000C9494000C949400A0
:100090000C9494000C9494000C9494000C94940090
:1000A0000C9494000C9494000C9494000C94940080
:1000B0000C9494000C9494000C9494000C94940070
:1000C0000C9494000C9494000C9494000C94940060
:1000D0000C9494000C9494000C9494000C94940050
:1000E0000C94940011241FBECFEFD1E2DEBFCDBF30
:1000F00000E00CBF14E0A0E0B2E0E6E2F8E200E0CD
:100100000BBF02C007900D92A838B107D9F71BBEEC
:1001100017E0A8E8B4E001C01D92AB34B107E1F7E5
:100120000E943B0E0C9411140C940000809880E8FF
:1001300080937C000895EAE7F0E080818068808306
:100140008DED90E00197F1F7808188608083808158
:100150008064808308951F920F920FB60F920BB6A2
:100160000F9211242F933F934F935F936F937F933D
:100170008F939F93AF93BF93EF93FF93CF93DF93AF
:10018000CDB7DEB72A97DEBFCDBF809178009091C2
:100190007900EAE7F0E020812F7720832EE334E036
:1001A0003A83298300D000D0EDB7FEB731969E0187
:1001B0002D5F3F4FADB7BEB712963C932E9311976C
:1001C00020E032E0338322839370958384830E94FE
:1001D000FB108DB79EB706960FB6F8949EBF0FBE64
:1001E0008DBFCE0101960E94C9032A96DEBFCDBF06
:1001F000DF91CF91FF91EF91BF91AF919F918F913F
:100200007F916F915F914F913F912F910F900BBE16
:100210000F900FBE0F901F901895CF93DF93FC01A6
:1002200062E070E00E946B0EEB0122E030E008C05B
:10023000CF01B9010E946B0E009741F02F5F3F4F35
:10024000C217D307ACF781E090E002C080E090E0F5
:10025000DF91CF910895CF92DF92EF92FF920F93AB
:100260001F93CF93DF93009719F00E94F80F6C0152
:1002700000E010E0C2E0D0E083E0E82E82E0F82E5B
:1002800016C0CE010E940D01009781F00F5F1F4F35
:1002900000D00F92EDB7FEB7F282E182D483C38320
:1002A0000E94B4100F900F900F900F902196CC16D3
:1002B000DD063CF700D00F928DE192E0EDB7FEB77E
:1002C00092838183148303830E94B4100F900F9054
:1002D0000F900F90DF91CF911F910F91FF90EF90B2
:1002E000DF90CF90089508950F931F93CF93DF93DE
:1002F000CDB7DEB762970FB6F894DEBF0FBECDBFA5
:1003000007E212E00F920F92EDB7FEB7128301835E
:100310000E94B4100F900F904091450750914607EE
:10032000CE01019668E070E00E945A10009761F0DB
:10033000CE0101960E94F80FBC01009729F0CE0172
:1003400009960E94B605DECF0E945E050E94A005B8
:1003500062960FB6F894DEBF0FBECDBFDF91CF918E
:100360001F910F910895CF93DF938BE292E00E944B
:10037000CD108091940490919504E0919404F091B3
:10038000950400D000D0CDB7DEB7219625E332E04A
:10039000ADB7BEB712963C932E9311972CE330E085
:1003A000B9010E946B0E7B836A83CF01B9010E9461
:1003B0006B0E9D838C830E94B4108DB79EB70696FA
:1003C0000FB6F8949EBF0FBE8DBFDF91CF910895F9
:1003D0008FEF80930B0180930A01089510920B0117
:1003E0001092880408958FEF80930B018093880406
:1003F00008950F931F93CF93DF93CDB7DEB72A975E
:100400000FB6F894DEBF0FBECDBF009741F0DC0100
:100410002C91222321F00E94F80F8C0102C000E0F1
:1004200014E18091890490918A04009739F00E9428
:10043000EE0110928A041092890408C00E94F30110
:1004400081E090E090938A048093890489EF91E0A1
:100450009A83898300D000D0EDB7FEB73196CE01E4
:100460000396ADB7BEB712969C938E93119782E414
:1004700092E093838283158304830E94FB10EDB77F
:10048000FEB736960FB6F894FEBF0FBEEDBFC8019B
:1004900060E071E00E946B0ECE0101960E94B605ED
:1004A0002A960FB6F894DEBF0FBECDBFDF91CF9175
:1004B0001F910F91089521E030E002C0220F331FF9
:1004C0008A95E2F720958091880428232093880458
:1004D00020930B01089521E030E002C0220F331F6A
:1004E0008A95E2F780918804822B80938804809318
:1004F0000B01089580958093880480930B010895E3
:1005000010929D0510929C0510929B0510929A05E1
:1005100010929F0510929E051092990410929804D3
:100520000895482F20919E0530919F052F5F3F4FE2
:10053000C90160E071E00E946B0E9C0180919804FB
:10054000909199042817390759F030939F0520930B
:100550009E0520563A4FF901408381E090E00895CE
:1005600080E090E008958091980490919904209102
:100570009E0530919F052817390779F0019660E0B4
:1005800071E00E946B0E90939904809398048056BA
:100590009A4FFC01808190E0089580E090E00895FA
:1005A000482F20919C0530919D052F5F3F4FC90139
:1005B00060E071E00E946B0E9C0180919A05909121
:1005C0009B052817390759F030939D0520939C050A
:1005D00026563B4FF901408381E090E0089580E08A
:1005E00090E0089580919A0590919B0520919C053B
:1005F00030919D052817390779F0019660E071E088
:100600000E946B0E90939B0580939A0586569B4F94
:10061000FC01808190E0089580E090E00895CF9201
:10062000DF92EF92FF920F931F93CF93DF93009788
:1006300041F0FC012081222321F00E94F80F8C015F
:1006400002C000ED17E0C2E0D0E0EE24FF2488E411
:10065000C82E82E0D82E17C0CE010E940D0100974F
:1006600089F00894E11CF11C00D00F92EDB7FEB7A1
:10067000D282C182D483C3830E94B4100F900F90A2
:100680000F900F9021960C171D0734F700D00F9292
:1006900081E692E0EDB7FEB792838183F482E38234
:1006A0000E94B4100F900F900F900F90DF91CF9198
:1006B0001F910F91FF90EF90DF90CF900895CF930F
:1006C000DF93FC012081222331F481E080938B04AD
:1006D0000E94890711C020918B04213021F0223023
:1006E00009F045C00DC00E94F80F10928C04809351
:1006F0008D0482E080938B0480E00E948D073DC0D2
:10070000C0918C04D0918D040E94F80FC82BD92B76
:1007100023E0D695C7952A95E1F7BE0180E090E0E9
:100720000E94CE0B20E030E040E85DE30E94D40957
:100730000E94E707DC01CB0190938D0480938C0429
:100740000E948B0700D00F928BE692E0EDB7FEB7C8
:100750009283818380918C0490918D049483838310
:100760000E94B4100F900F900F900F9006C00E943F
:100770008B078BE992E00E94CD10DF91CF91089515
:10078000109293041092920410929704109296047F
:100790000895CF93DF93482FE92F80919204909191
:1007A0009304C0919604D0919704019620E130E023
:1007B000B9010E946B0E8C179D0731F18091920454
:1007C000909193040196B9010E946B0E909393044B
:1007D000809392048091920490919304DC01AA0F7B
:1007E000BB1F63E0880F991F6A95E1F7A80FB91F37
:1007F000A056B94FC42FDE2F8AE009900D92815088
:10080000E1F781E090E002C080E090E0DF91CF91DD
:1008100008959C0140919204509193048091960414
:10082000909197044817590731F18091960490915F
:100830009704019660E170E00E946B0E909397041C
:10084000809396048091960490919704FC01EE0F9A
:10085000FF1FA3E0880F991FAA95E1F7E80FF91F82
:10086000D901E056F94F8AE001900D928150E1F7ED
:1008700081E090E0089580E090E00895CF93DF93C9
:10088000EC018881882319F40E949B0044C0CE01AA
:100890000E94F80F00D00F922AEC32E0EDB7FEB7BD
:1008A00032832183948383830E94B4100F900F902E
:1008B0000F900F90CE010E94F80F9C01B90188277C
:1008C00077FD8095982F0E94060B2DEC3CEC4CE8B0
:1008D0005AE30E94D40920E030E04AE754E40E9441
:1008E000D4090E947D0BDC01CB01845F914000D0D4
:1008F0000F9225ED32E0EDB7FEB7328321836AE037
:1009000070E00E946B0E748363830E94B4100F909A
:100910000F900F900F90DF91CF910895AF92BF92FB
:10092000CF92DF92EF92FF920F931F93CF93DF93BB
:10093000CDB7DEB7CA54D0400FB6F894DEBF0FBEB5
:10094000CDBFCE010B960E948E10009709F498C07F
:10095000CE010B966BE073E00E9416108C0180E0D4
:1009600090E06BE073E00E9416106C0180E090E074
:100970006BE073E00E9416105C0180E090E06BE099
:1009800073E00E9416107C010115110539F480E115
:1009900093E00E94CD100E945E0572C0C80168E11C
:1009A00073E00E941B10009721F4C6010E940F0300
:1009B00067C0C8016EE173E00E941B10009729F424
:1009C00086E293E00E943E045BC0C80167E273E0E8
:1009D0000E941B10009729F486E293E00E945F03B7
:1009E0004FC0C8016CE273E00E941B10009709F031
:1009F00043C0C114D10419F482E393E03FC0C6019F
:100A00000E94F80F60E071E00E946B0E8B01C5013F
:100A100068E173E00E941B10009719F48FE093E0E7
:100A200013C0C5016AE373E00E941B10009719F41C
:100A300089EF91E009C0C50167E273E00E941B10D5
:100A40000097B9F48FE593E09A838983CE010396EA
:100A5000E114F10411F0B70102C066E273E00E94F4
:100A60002410F894CE010196B8010E94B60578943E
:100A700007C08EE393E002C086E493E00E94CD10AD
:100A80000F920F9288E093E0EDB7FEB792838183D7
:100A90000E94B4100F900F90C65BDF4F0FB6F89412
:100AA000DEBF0FBECDBFDF91CF911F910F91FF90A1
:100AB000EF90DF90CF90BF90AF900895EF92FF92AC
:100AC0000F931F93CF93DF938AE090E00E94C610AC
:100AD000C0918E04D0918F0400E010E08EE4E82EE7
:100AE00083E0F82E20C088819981080F191F00D05B
:100AF00000D0EDB7FEB73196ADB7BEB71296FC92F7
:100B0000EE92119793838283158304830E94B4101D
:100B10000C84DD85C02D8DB79EB706960FB6F89470
:100B20009EBF0FBE8DBF2097F1F68AE090E00E9435
:100B3000C610DF91CF911F910F91FF90EF90089514
:100B400009C0FC012485358530938F0420938E04E1
:100B50000E945F0F80918E0490918F04009789F717
:100B600008958EE090E00E94C90E0895EF92FF92E2
:100B70000F931F93CF93DF93F82EE92E8B010E94E2
:100B8000B105EC01DC011296EF2DFE2D8AE00190FB
:100B90000D928150E1F719830883E0918E04F09162
:100BA0008F04309729F4D0938F04C0938E042FC004
:100BB00040E050E020E030E001C0FD018081918103
:100BC000280F391F2017310734F4A485B585AF01EC
:100BD000109799F701C0DF014115510579F48D9106
:100BE0009C911197801B910B11969C938E93BD87BE
:100BF000AC87D0938F04C0938E0424C0109751F417
:100C0000021B130B19830883FA01D587C4871D863D
:100C10001C8618C08D919C911197B901681B790BA6
:100C20009801261B370B398328838D919C9111974E
:100C3000821B930B11969C938E93FA01D587C487E0
:100C4000BD87AC87DF91CF911F910F91FF90EF90FF
:100C500008951092B200E6EBF0E08081806280831C
:100C6000E0E7F0E0808181608083E1EBF0E080816B
:100C7000816080838081826080830895CF93DF9339
:100C80000DC08C859D8590938F0480938E04CE013A
:100C900002960E94C903CE010E945F0FC0918E048C
:100CA000D0918F04209721F088819981009749F392
:100CB000DF91CF9108951F920F920FB60F920BB64E
:100CC0000F9211242F933F934F935F936F937F93D2
:100CD0008F939F93AF93BF93EF93FF93E0918E0415
:100CE000F0918F04309749F0808191810197918331
:100CF0008083009711F40E943E06FF91EF91BF910F
:100D0000AF919F918F917F916F915F914F913F91A3
:100D10002F910F900BBE0F900FBE0F901F90189544
:100D2000F8940E94B30278948823D1F3843011F0B0
:100D300090E008958FEF9FEF0895CF93C82F8A30EA
:100D400019F48DE00E949D06F89480914007882355
:100D500059F4C093C60081E0809340070AC078949C
:100D600086EF8A95F1F7F8948C2F0E94D0020097B5
:100D7000B1F3789481E090E0CF9108958AE593E013
:100D8000909346078093450788E693E09093480741
:100D9000809347070E948002109240071092C5007E
:100DA00087E08093C400E0ECF0E080818260808383
:100DB000E1ECF0E0808188608083808180648083C2
:100DC0008081806180838081806880830895CF9353
:100DD000C82F8A3019F48DE00E94E7068091400701
:100DE000882331F4C093C60081E08093400703C09C
:100DF0008C2F0E94D002CF9108951F920F920FB6B0
:100E00000F920BB60F9211242F933F934F935F9342
:100E10006F937F938F939F93AF93BF93EF93FF93C2
:100E20000E94F202882319F41092400702C08093B6
:100E3000C600FF91EF91BF91AF919F918F917F91EC
:100E40006F915F914F913F912F910F900BBE0F903B
:100E50000FBE0F901F9018951F920F920FB60F9212
:100E60000BB60F9211241F932F933F934F935F93D1
:100E70006F937F938F939F93AF93BF93EF93FF9362
:100E8000CF93DF93CDB7DEB72A97DEBFCDBF1091EA
:100E9000C600143031F01D3009F41AE0812F0E9491
:100EA000E706812F0E949102143011F01A3071F47C
:100EB0008EE894E09A838983CE01039669E573E016
:100EC0000E942410CE0101960E94C9032A96DEBF1B
:100ED000CDBFDF91CF91FF91EF91BF91AF919F91E6
:100EE0008F917F916F915F914F913F912F911F91C2
:100EF0000F900BBE0F900FBE0F901F901895209A69
:100F0000219A229A23988DB581608DBD80ED8CBD8C
:100F1000089528980895289A08958EBD08951F92DF
:100F20000F920FB60F920BB60F9211242F933F938F
:100F30004F935F936F937F938F939F93AF93BF93E1
:100F4000EF93FF93CF93DF93CDB7DEB72A97DEBF42
:100F5000CDBF2EB58FE593E09A83898300D000D072
:100F6000EDB7FEB73196CE010396ADB7BEB7129678
:100F70009C938E93119786E793E0938382832483D7
:100F800015820E94FB108DB79EB706960FB6F89497
:100F90009EBF0FBE8DBFCE0101960E94C9032A9647
:100FA000DEBFCDBFDF91CF91FF91EF91BF91AF91A8
:100FB0009F918F917F916F915F914F913F912F9171
:100FC0000F900BBE0F900FBE0F901F901895CF92F1
:100FD000DF92EF92FF920F931F936B017C0120E051
:100FE00030E040E05FE40E94D50A87FD11C0C701F0
:100FF000B60120E030E040E05FE40E949C090E94DE
:101000007D0B8B019C01005010402040304806C0F1
:10101000C701B6010E947D0B8B019C01B801C9017B
:101020001F910F91FF90EF90DF90CF900895A0E077
:10103000B0E0EDE1F8E00C94940EEC014B01FA0104
:101040008881823008F43EC1DB019C91923008F423
:1010500036C1843059F4943009F034C19981119625
:101060008C911197981709F027C12CC1943009F47D
:1010700026C19230A9F4823009F024C1CE0128E0C3
:10108000DC010D90CD01DA010D92AD012150C1F7C7
:10109000D40111968C91119799818923818311C173
:1010A000823009F40CC1AA80BB80DB0112964D91FD
:1010B0005C911397CC80DD80EE80FF8014960D91BB
:1010C0001D912D913C911797C501841B950BDC0157
:1010D00097FF04C0AA27BB27A81BB90BA032B105F4
:1010E0000CF067C01816190684F5280139010A2E7C
:1010F00004C076946794579447940A94D2F741E0D9
:1011000050E060E070E004C0440F551F661F771F79
:10111000AA95D2F74150504060407040402351237F
:101120006223732381E090E0A0E0B0E04115510517
:101130006105710519F480E090E0DC018C019D01EE
:1011400004291529262937293FC00097E9F1AA0E5D
:10115000BB1E260137010A2E04C07694679457946B
:1011600047940A94D2F741E050E060E070E004C098
:10117000440F551F661F771FAA95D2F74150504064
:10118000604070404C215D216E217F2181E090E024
:10119000A0E0B0E0411551056105710519F480E04A
:1011A00090E0DC016C017D01C428D528E628F728F1
:1011B0000BC04A155B0524F400E010E0980104C060
:1011C0005A01CC24DD2476018981D40111969C91A9
:1011D0001197891709F445C0882329F00C191D09B6
:1011E0002E093F0908C0D701C601801B910BA20B35
:1011F000B30B8C019D0137FD04C01182B382A28222
:101200000BC081E08183B382A28230952095109536
:1012100001951F4F2F4F3F4F04831583268337833C
:101220000DC0880F991FAA1FBB1F84839583A683B7
:10123000B78382819381019793838283848195818F
:10124000A681B781AC01BD01415050406040704063
:101250004F3F2FEF52072FEF62072FE3720708F37C
:101260000BC08183B382A2820C0D1D1D2E1D3F1D5C
:10127000048315832683378383E0808344815581EB
:101280006681778177FF1DC0DB01CA018170907094
:10129000A070B0707695679557954795842B952BE0
:1012A000A62BB72B84839583A683B78382819381F2
:1012B00001969383828305C0C9E7D3E003C0E401AC
:1012C00001C0EF01CE01CDB7DEB7E0E10C94B00E66
:1012D000A0E2B0E0EEE6F9E00C94A20EDC01CB0156
:1012E0008D839E83AF83B88729833A834B835C8346
:1012F000CE010596BE01675E7F4F0E94750DCE013F
:101300000196BE016F5E7F4F0E94750DCE0149961A
:10131000BE016F5E7F4FAE01475F5F4F0E941708AF
:101320000E949E0C462F572F682F792FCB01BA01B0
:10133000A096E2E00C94BE0EA0E2B0E0E2EAF9E092
:101340000C94A20EDC01CB018D839E83AF83B88702
:1013500029833A834B835C83CE010596BE01675E89
:101360007F4F0E94750DCE010196BE016F5E7F4FCB
:101370000E94750D8A8991E089278A8BCE01499652
:10138000BE016F5E7F4FAE01475F5F4F0E9417083F
:101390000E949E0C462F572F682F792FCB01BA0140
:1013A000A096E2E00C94BE0EA0E2B0E0EAEDF9E017
:1013B0000C94940EDC01CB018D839E83AF83B887A0
:1013C00029833A834B835C83CE010596BE01675E19
:1013D0007F4F0E94750DCE010196BE016F5E7F4F5B
:1013E0000E94750D998D923078F089898230C0F015
:1013F000943019F4823041F4CAC0843019F4923028
:1014000079F4C5C0923051F481E02A8D9A89291768
:1014100009F480E08A8FCE014996BBC0823051F436
:1014200081E02A8D9A89291709F480E08A8BCE0100
:101430004196AFC04D8C5E8C6F8C78A00D891E8953
:101440002F89388DE0E2F0E040E050E0BA018824D6
:1014500099245401CC24DD247601C201817090705E
:101460000097D1F0C00ED11EE21EF31EDB01CA01AF
:10147000880D991DAA1DBB1D41E050E060E070E0A1
:10148000C016D106E206F30618F040E050E0BA01BB
:10149000480F591F6A1F7B1F880C991CAA1CBB1C74
:1014A00037FF08C081E090E0A0E0B0E0882A992AE8
:1014B000AA2ABB2A000F111F221F331F769467949C
:1014C00057944794319749F68B8D9C8D2B893C8995
:1014D000820F931F02969C878B8781E02A8D9A89C1
:1014E000291709F480E08A872B853C8517C0CA013B
:1014F00081709070009761F0F694E794D794C79448
:1015000080E090E0A0E0B0E8C82AD92AEA2AFB2AC5
:1015100076956795579547952F5F3F4F77FDE7CFB6
:10152000C9010BC0440F551F661F771FF7FC4160B0
:10153000CC0CDD1CEE1CFF1C01974030A0E05A07CC
:10154000A0E06A07A0E47A0768F38B879C87DB0139
:10155000CA018F779070A070B07080349105A1059A
:10156000B10561F447FD0AC0C114D104E104F104DE
:1015700029F0405C5F4F6F4F7F4F40784D875E870B
:101580006F87788B83E08987CE01099602C089E74F
:1015900093E00E949E0C462F572F682F792FCB0186
:1015A000BA01A096E0E10C94B00EA8E1B0E0EBED3A
:1015B000FAE00C94A20EDC01CB018D839E83AF83F5
:1015C000B88729833A834B835C83CE010596BE019D
:1015D0006F5E7F4F0E94750DCE010196BE01675F61
:1015E0007F4F0E94750D8989823058F0898582303D
:1015F00040F0CE014196BE01675F7F4F0E94DE0D35
:1016000001C08FEF6896E2E00C94BE0ECF92DF929D
:10161000EF92FF92CF93DF93CDB7DEB728970FB647
:10162000F894DEBF0FBECDBF6B017C0183E08983E0
:10163000D701C6018827B7FD83959927AA27BB271D
:10164000282F8A83C114D104E104F10419F482E043
:10165000898335C08EE190E09C838B83222389F0BF
:1016600080E0C81680E0D80680E0E80680E8F8064A
:1016700059F1F094E094D094C094C11CD11CE11CA9
:10168000F11CCD82DE82EF82F886C701B6010E948E
:101690004B0C01971816190694F4082E04C0CC0CB4
:1016A000DD1CEE1CFF1C0A94D2F7CD82DE82EF8295
:1016B000F8862EE130E0281B390B3C832B83CE01CA
:1016C00001960E949E0C04C060E070E080E09FECF8
:1016D000382F292F862F972FA32FB22FBC01CD0192
:1016E00028960FB6F894DEBF0FBECDBFDF91CF9125
:1016F000FF90EF90DF90CF900895ACE0B0E0E3E88A
:10170000FBE00C94A00EDC01CB0189839A83AB83B0
:10171000BC83CE010196BE016B5F7F4F0E94750DA9
:101720008D81823069F1823058F1843039F02F8117
:10173000388537FD25C02F31310544F08E8188234F
:1017400019F100E010E020E030E822C08EE190E0E6
:10175000821B930B09851A852B853C8504C0369521
:101760002795179507958A95D2F78E81882381F062
:1017700030952095109501951F4F2F4F3F4F08C072
:1017800000E010E0980104C00FEF1FEF2FEF3FE7DC
:10179000B801C9012C96E4E00C94BC0EA8E0B0E0BE
:1017A000E4EDFBE00C949C0E6B017C011A82611548
:1017B00071058105910519F482E089835EC083E09B
:1017C00089830EE110E01C830B83CD82DE82EF82E1
:1017D000F886C701B6010E944B0C9C012150304095
:1017E00037FF38C0EE27FF27E21BF30B81E090E0C4
:1017F000A0E0B0E00E2E04C0880F991FAA1FBB1FE7
:101800000A94D2F70197A109B1098C219D21AE213B
:10181000BF2141E050E060E070E00097A105B10514
:1018200019F440E050E0BA0104C0F694E794D7946C
:10183000C794EA95D2F7C42AD52AE62AF72ACD8298
:10184000DE82EF82F8868EE190E0821B930B9C8310
:101850008B8313C02115310581F0022E04C0CC0CFE
:10186000DD1CEE1CFF1C0A94D2F7CD82DE82EF82D3
:10187000F886021B130B1C830B83CE0101960E947A
:101880009E0C462F572F682F792FCB01BA0128962F
:10189000E8E00C94B80ECF92DF92EF92FF920F9394
:1018A0001F938B019C01003080E0180781E028071E
:1018B00080E0380750F40F3F11052105310509F08C
:1018C00088F480E090E0DC0116C00030E0E01E0704
:1018D000E0E02E07E1E03E0750F480E190E0A0E078
:1018E000B0E009C088E090E0A0E0B0E004C088E18A
:1018F00090E0A0E0B0E040E250E060E070E0481B23
:10190000590B6A0B7B0B6801790104C0F694E794CC
:10191000D794C7948A95D2F7D701C6018F579C4FA9
:10192000FC018081481B510961097109CA011F919D
:101930000F91FF90EF90DF90CF900895CF92DF92BC
:10194000EF92FF920F931F93DC0114964D915D91DE
:101950006D917C9117971196EC9111978C91823033
:1019600020F460618FEF90E0A5C0843009F49DC041
:10197000823009F494C0411551056105710509F4DF
:1019800091C012968D919C9113972FEF82389207F8
:101990000CF059C022E83FEF281B390B2A313105E2
:1019A00064F56A017B01022E04C0F694E794D79493
:1019B000C7940A94D2F781E090E0A0E0B0E004C0C0
:1019C000880F991FAA1FBB1F2A95D2F70197A1095B
:1019D000B10984239523A623B72341E050E060E0BA
:1019E00070E00097A105B10519F440E050E0BA019C
:1019F0004C295D296E297F2903C040E050E0BA01DF
:101A0000DB01CA018F779070A070B07080349105AF
:101A1000A105B10539F447FF09C0405C5F4F6F4F26
:101A20007F4F04C0415C5F4F6F4F7F4F81E090E07C
:101A3000403020E0520720E0620720E4720738F5CA
:101A400080E090E024C0803891057CF58A019B01FC
:101A50000F771070207030700034110521053105AA
:101A600039F447FF09C0405C5F4F6F4F7F4F04C0A0
:101A7000415C5F4F6F4F7F4F77FD03C081589F4F91
:101A800006C0769567955795479580589F4F97E084
:101A900076956795579547959A95D1F70BC080E055
:101AA00090E005C080E090E005C08FEF90E040E05E
:101AB00050E0BA01982F979599279795A62FAF7761
:101AC000E795EE27E79586953A2F392B282F2E2B71
:101AD000842F952FA32FB22FBC01CD011F910F9101
:101AE000FF90EF90DF90CF900895DC01FB014C91C7
:101AF00011965C91119712968C911297682F6F77BF
:101B000070E0982F991F9927991F13962C9113977E
:101B1000822F880F892B90E0221F2227221F2183EA
:101B2000009739F5411551056105710511F482E001
:101B300029C082E89FEF9383828327E0440F551FDB
:101B4000661F771F2A95D1F783E0808309C0440F71
:101B5000551F661F771F828193810197938382832C
:101B6000403080E0580780E0680780E4780778F329
:101B700020C08F3F910579F441155105610571052C
:101B800019F484E08083089564FF03C081E08083BA
:101B900010C010820EC08F5790409383828383E0E1
:101BA000808387E0440F551F661F771F8A95D1F702
:101BB000706444835583668377830895CF93FC01D3
:101BC000DB019081923008F44CC08C91823008F493
:101BD00048C0943069F42181843039F411968C9195
:101BE000119790E0821B910944C02223D1F13FC09C
:101BF000843021F0923041F48230B1F111968C9111
:101C000011978823A1F12DC0C181823001F1119675
:101C10008C911197C817D9F48281938112962D91D6
:101C20003C9113972817390794F082179307BCF05B
:101C3000448155816681778114968D919D910D9097
:101C4000BC91A02D84179507A607B70718F4CC23DD
:101C500041F00DC0481759076A077B0728F4CC23C9
:101C600031F081E090E005C080E090E002C08FEFAD
:101C70009FEFCF910895CF93DF93CDB7DEB72A972B
:101C80000FB6F894DEBF0FBECDBF0E94E8010E94E0
:101C9000BE060E94C0030E9429060E9496000E9470
:101CA0007F070F920F9285E492E0EDB7FEB7928323
:101CB00081830E94B4100F900F90F894CE0101968A
:101CC0000E94090478940097C1F3E981FA81CE015A
:101CD00003961995F2CF97FB092E07260AD077FDB8
:101CE00004D00CD006D000201AF4709561957F4F77
:101CF0000895F6F7909581959F4F0895AA1BBB1BF9
:101D000051E107C0AA1FBB1FA617B70710F0A61BFB
:101D1000B70B881F991F5A95A9F780959095BC011C
:101D2000CD0108952F923F924F925F926F927F92D2
:101D30008F929F92AF92BF92CF92DF92EF92FF92DB
:101D40000F931F93CF93DF93CDB7DEB7CA1BDB0B87
:101D50000FB6F894DEBF0FBECDBF19942A8839881C
:101D600048885F846E847D848C849B84AA84B98433
:101D7000C884DF80EE80FD800C811B81AA81B9813F
:101D8000CE0FD11D0FB6F894DEBF0FBECDBFED0153
:101D90000895CF93DF93AC018230910510F442E0B7
:101DA00050E0E0914307F091440720E030E0A0E0EC
:101DB000B0E024C08081918184179507D0F084170A
:101DC000950771F482819381109729F013969C9363
:101DD0008E9312972CC0909344078093430727C09B
:101DE0002115310519F08217930718F49C01BD01E4
:101DF000EF0192818381DF01E92FF82F3097D1F62F
:101E000021153105F9F0C901841B950B843091052A
:101E100080F48A819B816115710521F0FB01938318
:101E2000828304C09093440780934307FE01329657
:101E300042C0FE01E80FF91F419351930297998325
:101E4000888339C08091410790914207009741F4FF
:101E5000809183049091840490934207809341077A
:101E600020918104309182042115310541F42DB770
:101E70003EB78091850490918604281B390BE09130
:101E80004107F0914207E217F30798F42E1B3F0B2E
:101E90002417350770F0CA0102962817390748F051
:101EA0008E0F9F1F90934207809341074193519358
:101EB00002C0E0E0F0E0CF01DF91CF9108950F93F1
:101EC0001F93CF93DF939C01009709F48CC0DC0132
:101ED000129713961C921E9212976091430770916D
:101EE00044076115710589F48D919C911197820FBA
:101EF000931F20914107309142072817390769F550
:101F0000B0934207A09341076EC0FB0140E050E050
:101F100001C0FC01EA17FB0730F482819381AF0115
:101F20000097B9F71FC0E9012297FB83EA83088174
:101F30001981C901800F911F8E179F0759F4808165
:101F40009181800F911F029699838883828193816A
:101F50009B838A834115510529F4B0934407A093CC
:101F6000430741C0FA01B383A283C191D191EC0F21
:101F7000FD1FAE17BF0781F4F901929182918C0F7A
:101F80009D1F0296DA0111969C938E938281938114
:101F900013969C938E931297E0E0F0E002C0FB0151
:101FA000BC01DB0112968D919C9113970097B9F7B4
:101FB000CB0102962D913C911197820F931F209196
:101FC0004107309142072817390769F4309729F4FF
:101FD000109244071092430702C01382128270933A
:101FE000420760934107DF91CF911F910F910895B0
:101FF000FC0188279927E89421912032E9F32930C0
:1020000010F02E30C8F32B3241F02D3239F46894A1
:1020100004C00E945210820F911D219120532A303A
:10202000C0F31EF4909581959F4F089540E954E0C8
:102030000E942B100895FB01DC018D910190801905
:102040000110D9F3990B0895FB01DC0101900D9269
:102050000020E1F70895FA01A191B081009719F4E9
:102060001097E1F0CD01DC01CD010D90002011F4BD
:10207000C00113C0FB012191222319F02015D9F7CB
:10208000F3CFFB012191201519F41E92119606C081
:102090002223C1F70D900020A1F7D001FA01A193EE
:1020A000B08308957AE0979F902D879F802D910DA2
:1020B00011240895CF92DF92EF92FF920F931F9316
:1020C000CF93DF938C016A01FA01838180FF1AC0EC
:1020D00016161706BCF47B01E8010EC0C6010E946B
:1020E0004713FFEF8F3F9F0769F089930894E1083A
:1020F000F1088A30910521F021E0E216F10471F730
:10210000188202C000E010E0C801DF91CF911F915A
:102110000F91FF90EF90DF90CF9008950F931F9352
:10212000CF93DF938C01E0914507F09146078381BF
:1021300080FF12C0E80180914507909146070E94F8
:1021400047132FEF8F3F920739F089938A3091051B
:1021500091F72197188202C000E010E0C801DF91DA
:10216000CF911F910F910895CF93DF93CDB7DEB735
:10217000FE013696619171918091470790914807D1
:10218000AF010E942A11DF91CF9108956091470716
:10219000709148070E94871308950F931F93CF9360
:1021A000DF938C01E0914707F0914807838181FF1D
:1021B0001AC0C0E0D0E005C01995009711F0CFEF2C
:1021C000DFEFF80181918F01609147077091480717
:1021D000DB011896ED91FC911997882369F78AE045
:1021E0001995009711F0CFEFDFEFCE01DF91CF917E
:1021F0001F910F9108950F931F93CF93DF93CDB746
:10220000DEB72E970FB6F894DEBF0FBECDBF0E8996
:102210001F8986E08C831A8309838FEF9FE79E8353
:102220008D83AE01465E5F4FCE010196688D798D3C
:102230000E942A11EF81F885E00FF11F10822E967F
:102240000FB6F894DEBF0FBECDBFDF91CF911F91C7
:102250000F9108952F923F924F925F926F927F92CB
:102260008F929F92AF92BF92CF92DF92EF92FF92A6
:102270000F931F93CF93DF93CDB7DEB72D970FB694
:10228000F894DEBF0FBECDBF3C017D876C875A013D
:10229000FC0117821682838181FFC8C12E01089438
:1022A000411C511CF3019381EC85FD8593FD8591C3
:1022B00093FF8191FD87EC87882309F4B3C18532B0
:1022C00041F493FD859193FF8191FD87EC878532E1
:1022D00029F490E0B3010E948713E4CFFF24EE2499
:1022E00010E01032B0F48B3269F08C3228F4803276
:1022F00051F0833271F40BC08D3239F0803349F4E0
:1023000011602CC01260146029C0186027C01061D1
:1023100025C017FD2EC0282F20532A3098F416FF11
:1023200008C08F2D880FF82EFF0CFF0CF80EF20E50
:1023300015C08E2D880FE82EEE0CEE0CE80EE20E86
:1023400010620CC08E3221F416FD6CC1106406C000
:102350008C3611F4106802C0883659F4EC85FD857E
:1023600093FD859193FF8191FD87EC87882309F088
:10237000B8CF982F9554933018F09052933038F48A
:1023800024E030E0A20EB31E3FE339830FC0833652
:1023900031F0833781F0833509F05AC022C0F5014E
:1023A0008081898322E030E0A20EB31E21E0C22E9C
:1023B000D12C420114C092E0292E312C2A0C3B1C56
:1023C000F5018080918016FF03C06F2D70E002C080
:1023D0006FEF7FEFC4010E943C136C0151011F7726
:1023E00015C082E0282E312C2A0C3B1CF501808080
:1023F000918016FF03C06F2D70E002C06FEF7FEF7A
:10240000C4010E9431136C011068510113FD1CC0FE
:1024100006C080E290E0B3010E948713EA948E2DFB
:1024200090E0C816D906A8F30FC0F40117FD8591F6
:1024300017FF81914F0190E0B3010E948713E110D3
:10244000EA940894C108D108C114D10471F7E7C017
:10245000843611F0893651F5F50117FF07C08081E8
:102460009181A281B38124E030E008C08081918114
:10247000AA2797FDA095BA2F22E030E0A20EB31E46
:10248000012F0F76B7FF08C0B095A0959095819564
:102490009F4FAF4FBF4F0068BC01CD01A2012AE0A2
:1024A00030E00E94B313D82ED4183FC0853721F4F2
:1024B0001F7E2AE030E020C0197F8F36A9F08037D8
:1024C00020F4883509F0AEC00BC0803721F0883782
:1024D00009F0A8C001C0106114FF09C0146007C052
:1024E00014FF08C0166006C028E030E005C020E1F7
:1024F00030E002C020E132E0F50117FF07C0608143
:1025000071818281938144E050E006C060817181D5
:1025100080E090E042E050E0A40EB51EA2010E94CF
:10252000B313D82ED418012F0F7706FF09C00E7FE2
:10253000DF1430F404FF06C002FD04C00F7E02C0A9
:102540001D2D01C01F2D802F90E004FF0CC0FE0147
:10255000ED0DF11D2081203311F4097E09C002FF29
:1025600006C01E5F05C086789070009709F01F5F57
:10257000802E992403FD12C000FF0DC0FD2C1E15F6
:1025800050F4FE0CF11A1E2D06C080E290E0B3015B
:102590000E9487131F5F1E15C0F304C01E1510F4A0
:1025A000E11A01C0EE2484FE0FC080E390E0B30185
:1025B0000E94871382FE1FC081FE03C088E590E061
:1025C00010C088E790E00DC0C40186789070009735
:1025D00091F081FC02C080E201C08BE207FD8DE238
:1025E00090E0B3010E94871306C080E390E0B3013E
:1025F0000E948713FA94DF14C0F3DA94F201ED0D10
:10260000F11D808190E0B3010E948713DD20A9F7BE
:1026100006C080E290E0B3010E948713EA94EE20A6
:10262000C1F740CEF3018681978102C08FEF9FEF03
:102630002D960FB6F894DEBF0FBECDBFDF91CF91C0
:102640001F910F91FF90EF90DF90CF90BF90AF90D0
:102650009F908F907F906F905F904F903F902F90C2
:102660000895FC010590615070400110D8F78095E5
:1026700090958E0F9F1F0895FC016150704001904E
:102680000110D8F7809590958E0F9F1F0895CF93D6
:10269000DF93EC012B8120FF35C026FF09C02F7B83
:1026A0002B838E819F8101969F838E838A8128C090
:1026B00022FF0FC0E881F9818081992787FD9095DD
:1026C000009719F420622B831DC03196F983E883AB
:1026D00011C0EA85FB85CE01199597FF0BC02B81B0
:1026E0003FEF8F3F930711F480E101C080E2822B1E
:1026F0008B8308C02E813F812F5F3F4F3F832E8306
:1027000090E002C08FEF9FEFDF91CF9108950F937C
:102710001F93CF93DF938C01EB018B8181FF1BC053
:1027200082FF0DC02E813F818C819D812817390742
:1027300064F4E881F9810193F983E88306C0E885B0
:10274000F985802F1995009731F48E819F8101962C
:102750009F838E8302C00FEF1FEFC801DF91CF91DF
:102760001F910F910895FA01AA27283051F12031C5
:1027700081F1E8946F936E7F6E5F7F4F8F4F9F4F15
:10278000AF4FB1E03ED0B4E03CD0670F781F891F57
:102790009A1FA11D680F791F8A1F911DA11D6A0F25
:1027A000711D811D911DA11D20D009F468943F91D8
:1027B0002AE0269F11243019305D3193DEF6CF01D7
:1027C0000895462F4770405D4193B3E00FD0C9F79D
:1027D000F6CF462F4F70405D4A3318F0495D31FD0A
:1027E0004052419302D0A9F7EACFB4E0A69597955D
:1027F000879577956795BA95C9F700976105710533
:1028000008959B01AC010A2E06945795479537957C
:102810002795BA95C9F7620F731F841F951FA01DD6
:062820000895F894FFCFBB
:1028260025640025642069732061207072696D65D6
:10283600206E756D626572202121210A00636F7515
:102846006E743D25640A003E3E20004D494E203AF6
:102856002053454300252E3264203A20252E32642B
:102866000A00256400242000256420697320612065
:102876007072696D65206E756D6265722121210A1F
:1028860000636F756E743D25640A007461736B5F37
:10289600746337372829203A2063757272656E741F
:1028A6005F74656D7065726174757265203F202571
:1028B60064206465677265652E0A007461736B5FD8
:1028C600746337372829203A20756E6578706563FA
:1028D60065746420737461746520696E2074617315
:1028E6006B5F746337372E2E2E0076616C7565200C
:1028F6003A202564007461736B5F7463313034373A
:10290600612829203A2063757272656E7420746599
:102916006D7065726174757265203F202564206450
:1029260065677265652E0A0024200020090A0D00DD
:102936002121212D313131007072696D650074637A
:1029460031303437610000746337370074696D6560
:1029560072002121212D323232006C656400212162
:10296600212D333333002121212D343434002D2DF4
:102976003E2564282564292000000000000100008F
:1029860000000000900600000000000200000000A9
:102996009D06000000002564000000000000000005
:1029A60000000102020303030304040404040404F4
:1029B60004050505050505050505050505050505C2
:1029C60005060606060606060606060606060606A2
:1029D6000606060606060606060606060606060691
:1029E6000607070707070707070707070707070772
:1029F6000707070707070707070707070707070761
:102A06000707070707070707070707070707070750
:102A16000707070707070707070707070707070740
:102A26000708080808080808080808080808080821
:102A36000808080808080808080808080808080810
:102A46000808080808080808080808080808080800
:102A560008080808080808080808080808080808F0
:102A660008080808080808080808080808080808E0
:102A760008080808080808080808080808080808D0
:102A860008080808080808080808080808080808C0
:102A960008080808080808080808080808080808B0
:082AA6000800004B07200000AE
:00000001FF
