:100000000C9472000C9494000C9494000C94940042
:100010000C9494000C9494000C9494000C94940010
:100020000C9494000C9494000C9494000C94940000
:100030000C9494000C9494000C9494000C949400F0
:100040000C9494000C9494000C9494000C949400E0
:100050000C9494000C9494000C9494000C949400D0
:100060000C9494000C9494000C9494000C9437011C
:100070000C9494000C9494000C9494000C949400B0
:100080000C9494000C9494000C9494000C949400A0
:100090000C9494000C9494000C9494000C94940090
:1000A0000C9494000C9494000C9494000C94940080
:1000B0000C9494000C9494000C9494000C94940070
:1000C0000C9494000C9494000C9494000C94940060
:1000D0000C9494000C9494000C9494000C94940050
:1000E0000C94940011241FBECFEFD1E2DEBFCDBF30
:1000F00000E00CBF12E0A0E0B2E0EEE3F3E000E0CD
:100100000BBF02C007900D92A833B107D9F71BBEF1
:1001100012E0A8E3B2E001C01D92AB37B107E1F7EE
:100120000E9473010C949D010C9400008FEF80934A
:100130000B0180930A01089510920B01109238026E
:1001400008958FEF80930B0180933802089521E08A
:1001500030E002C0220F331F8A95E2F7209580918C
:10016000380228232093380220930B01089521E0C0
:1001700030E002C0220F331F8A95E2F780913802E7
:10018000822B8093380280930B0108958095809391
:10019000380280930B0108951092C50087E0809388
:1001A000C400E0ECF0E0808182608083E1ECF0E06C
:1001B00080818860808380818064808308950F932C
:1001C0001F93CF93DF93182F092FE82FF92FEF01FB
:1001D00009900020E9F72197CE1BDF0B2FE330E0D9
:1001E000A0913902B0913A02A55CBD4FFD0101908A
:1001F0000020E9F73197EA1BFB0BC9018E1B9F0B0F
:100200008C179D0768F3F8946091390270913A0257
:10021000655C7D4F8BE392E00E9496018BE392E058
:10022000612F702F0E948B0110923A0210923902B6
:100230008091360290913702009799F01092370220
:10024000109236028091390290913A02FC01E55CED
:10025000FD4F2081019690933A02809339022093BA
:10026000C6007894DF91CF911F910F9108951F924E
:100270000F920FB60F920BB60F9211242F938F93FC
:100280009F93EF93FF93E0913902F0913A02E55C7E
:10029000FD4F2081222329F410923A021092390254
:1002A00016C02A3049F4E0913902F0913A02E55C37
:1002B000FD4F8DE0808309C08091390290913A0210
:1002C000019690933A02809339022093C600FF91E1
:1002D000EF919F918F912F910F900BBE0F900FBEBA
:1002E0000F901F9018950E94CC007894CAE0D0E03F
:1002F00080E092E00E94DF008EE092E00E94DF004A
:100300008DE192E00E94DF00219791F78DE292E06B
:100310000E94DF00FFCFFB01DC010D900020E9F718
:10032000119701900D920020E1F70895FB01DC0187
:0E03300001900D920020E1F70895F894FFCFA0
:10033E0049206C6F766520796F752E200A00596FF3
:10034E0075206C6F7665206D652E200A004865203D
:10035E006C6F766573206865722E200A00456E6498
:08036E00202121210A000100F9
:00000001FF
