:100000000C9472000C9494000C9494000C94940042
:100010000C9494000C9494000C9494000C94940010
:100020000C9494000C9494000C9494000C94940000
:100030000C9494000C9494000C9494000C949400F0
:100040000C9494000C9494000C9494000C949400E0
:100050000C9494000C9494000C9494000C949400D0
:100060000C9494000C947D020C9494000C944E0219
:100070000C9494000C9494000C9494000C949400B0
:100080000C9494000C9494000C9494000C949400A0
:100090000C9494000C9494000C9494000C94940090
:1000A0000C9494000C9494000C9494000C94940080
:1000B0000C9494000C9494000C9494000C94940070
:1000C0000C9494000C9494000C9494000C94940060
:1000D0000C9494000C9494000C9494000C94940050
:1000E0000C94940011241FBECFEFD1E2DEBFCDBF30
:1000F00000E00CBF12E0A0E0B2E0EEE7F1E100E0CA
:100100000BBF02C007900D92A838B107D9F71BBEEC
:1001100014E0A8E8B2E001C01D92AF39B107E1F7E1
:100120000E945B030C94BD080C940000CF93DF93F6
:10013000FC0162E070E00E94AA03EB0122E030E0E3
:1001400008C0CF01B9010E94AA03009741F02F5FB8
:100150003F4FC217D307ACF781E090E002C080E0C8
:1001600090E0DF91CF910895CF92DF92EF92FF92CE
:100170000F931F93CF93DF93009721F00E94000508
:100180007C0104C090EDE92E97E0F92EC2E0D0E0AA
:1001900000E010E080E0C82E82E0D82E16C0CE012C
:1001A0000E949600009781F00F5F1F4F00D00F92C2
:1001B000EDB7FEB7D282C182D483C3830E948F057C
:1001C0000F900F900F900F902196EC16FD063CF7C4
:1001D00000D00F928AE192E0EDB7FEB7928381835F
:1001E000148303830E948F050F900F900F900F9040
:1001F000DF91CF911F910F91FF90EF90DF90CF9003
:100200000895EF92FF921F93CF93DF93CDB7DEB7A0
:1002100028970FB6F894DEBF0FBECDBF009719F038
:10022000FC01108101C011E624E2E22E22E0F22E50
:100230000F920F92EDB7FEB7F282E1820E948F0516
:100240000F900F904091990450919A04CE0101961D
:1002500068E070E00E945B050097A1F00E94B20286
:100260002981FC0120831182183619F0143739F4E2
:1002700003C00E94BA02DCCF0E94CF02D9CF0E94F5
:10028000E602D6CF0E941D030E944A0328960FB6AD
:10029000F894DEBF0FBECDBFDF91CF911F91FF90CD
:1002A000EF900895109291031092900310928F0393
:1002B00010928E03109293031092920310928D026B
:1002C00010928C020895482F20919203309193034D
:1002D0002F5F3F4FC90160E071E00E94AA039C01BB
:1002E00080918C0290918D022817390759F0309334
:1002F0009303209392032C563C4FF901408381E0F5
:1003000090E0089580E090E0089580918C029091B3
:100310008D0220919203309193032817390779F0C9
:10032000019660E071E00E94AA0390938D02809391
:100330008C028C569C4FFC01808190E0089580E0F7
:1003400090E00895482F20919003309191032F5F02
:100350003F4FC90160E071E00E94AA039C018091B7
:100360008E0390918F032817390759F0309391032A
:100370002093900322573D4FF901408381E090E0A4
:10038000089580E090E0089580918E0390918F030E
:1003900020919003309191032817390779F0019645
:1003A00060E071E00E94AA0390938F0380938E0314
:1003B00082579D4FFC01808190E0089580E090E09D
:1003C0000895F8940E94850178948823D1F38430AD
:1003D00011F090E008958FEF9FEF0895CF93C82F0D
:1003E0008A3019F48DE00E94EE01F8948091940413
:1003F000882359F4C093C60081E0809394040AC016
:10040000789486EF8A95F1F7F8948C2F0E94A201D8
:100410000097B1F3789481E090E0CF9108958FE553
:1004200092E090939A04809399048DE692E09093E1
:100430009C0480939B040E94520110929404109299
:10044000C50087E08093C400E0ECF0E0808182602A
:100450008083E1ECF0E0808188608083808180642B
:10046000808380818061808380818068808308951B
:10047000CF93C82F8A3019F48DE00E943802809102
:100480009404882331F4C093C60081E080939404DF
:1004900003C08C2F0E94A201CF9108951F920F924A
:1004A0000FB60F920BB60F9211242F933F934F93D9
:1004B0005F936F937F938F939F93AF93BF93EF93CC
:1004C000FF930E94C401882319F41092940402C07F
:1004D0008093C600FF91EF91BF91AF919F918F9153
:1004E0007F916F915F914F913F912F910F900BBE34
:1004F0000F900FBE0F901F9018951F920F920FB67E
:100500000F920BB60F9211242F933F934F935F934B
:100510006F937F938F939F93AF93BF93CF93EF93FB
:10052000FF93C091C600C43031F0CD3009F4CAE069
:100530008C2F0E9438028C2F0E946301FF91EF9153
:10054000CF91BF91AF919F918F917F916F915F916B
:100550004F913F912F910F900BBE0F900FBE0F90B8
:100560001F90189584E090E00E94D10308950E94A6
:1005700067040895FC018091880290918902009798
:1005800039F4F0938902E09388021382128208956D
:1005900093838283F0938902E09388020895E09127
:1005A0008802F0918902309731F490938902809308
:1005B000880208C0F9012281338121153105D1F764
:1005C00093838283FC01138212820895CF93DF9379
:1005D000FC0120918802309189022115310531F00A
:1005E00040815181D901C0E0D0E00FC090938902D1
:1005F00080938802138212821DC012968D919C9165
:100600001397ED01009739F0DC018D919C911197C2
:100610008417950794F3209739F433832283F0935A
:100620008902E093880206C08A819B81938382833A
:10063000FB83EA83DF91CF9108950F931F93CF93AC
:10064000DF938AE090E00E94A105C0918802D091DA
:1006500089020BE712E013C000D00F92EDB7FEB78E
:100660001283018388819981948383830E948F05FB
:100670000A80DB81C02D0F900F900F900F90209774
:1006800059F78AE090E00E94A105DF91CF911F9178
:100690000F91089509C0FC012281338130938902B2
:1006A000209388020E9467048091880290918902B9
:1006B000009789F70895CF93DF93CDB7DEB7C05881
:1006C000D0400FB6F894DEBF0FBECDBF0E940F0220
:1006D000789484E290E00E94A105409199045091A1
:1006E0009A04CE01019660E870E00E945B050097D5
:1006F00061F1CE01019667E272E00E941E0500974B
:1007000041F380E090E067E272E00E941E058C01F8
:10071000CE0101966CE272E00E942305009721F45D
:10072000C8010E94B400D5CFCE01019662E372E009
:100730000E942305009721F4C8010E940101C9CF3E
:1007400087E392E00E94A805C4CF8AE492E00E9469
:10075000A805FFCF97FB092E07260AD077FD04D006
:100760000CD006D000201AF4709561957F4F089543
:10077000F6F7909581959F4F0895AA1BBB1B51E1F9
:1007800007C0AA1FBB1FA617B70710F0A61BB70B01
:10079000881F991F5A95A9F780959095BC01CD01A6
:1007A0000895CF93DF93AC018230910510F442E0BD
:1007B00050E0E0919704F091980420E030E0A0E050
:1007C000B0E024C08081918184179507D0F0841710
:1007D000950771F482819381109729F013969C9369
:1007E0008E9312972CC0909398048093970427C0FF
:1007F0002115310519F08217930718F49C01BD01EA
:10080000EF0192818381DF01E92FF82F3097D1F634
:1008100021153105F9F0C901841B950B8430910530
:1008200080F48A819B816115710521F0FB0193831E
:10083000828304C09093980480939704FE013296BB
:1008400042C0FE01E80FF91F41935193029799832B
:10085000888339C08091950490919604009741F463
:1008600080918402909185029093960480939504E0
:1008700020918202309183022115310541F42DB778
:100880003EB78091860290918702281B390BE09138
:100890009504F0919604E217F30798F42E1B3F0B92
:1008A0002417350770F0CA0102962817390748F057
:1008B0008E0F9F1F909396048093950441935193BC
:1008C00002C0E0E0F0E0CF01DF91CF9108950F93F7
:1008D0001F93CF93DF939C01009709F48CC0DC0138
:1008E000129713961C921E92129760919704709122
:1008F00098046115710589F48D919C911197820F6F
:10090000931F20919504309196042817390769F5B3
:10091000B0939604A09395046EC0FB0140E050E0B4
:1009200001C0FC01EA17FB0730F482819381AF011B
:100930000097B9F71FC0E9012297FB83EA8308817A
:100940001981C901800F911F8E179F0759F480816B
:100950009181800F911F0296998388838281938170
:100960009B838A834115510529F4B0939804A09381
:10097000970441C0FA01B383A283C191D191EC0FD6
:10098000FD1FAE17BF0781F4F901929182918C0F80
:100990009D1F0296DA0111969C938E93828193811A
:1009A00013969C938E931297E0E0F0E002C0FB0157
:1009B000BC01DB0112968D919C9113970097B9F7BA
:1009C000CB0102962D913C911197820F931F20919C
:1009D0009504309196042817390769F4309729F463
:1009E000109298041092970402C01382128270939E
:1009F000960460939504DF91CF911F910F91089514
:100A0000FC0188279927E89421912032E9F32930C5
:100A100010F02E30C8F32B3241F02D3239F46894A7
:100A200004C00E945305820F911D219120532A304A
:100A3000C0F31EF4909581959F4F08954AE852E0C7
:100A40000E942C050895FB01DC018D910190801915
:100A50000110D9F3990B0895FA01A191B081009783
:100A600019F41097E1F0CD01DC01CD010D900020CB
:100A700011F4C00113C0FB012191222319F02015AC
:100A8000D9F7F3CFFB012191201519F41E9211968D
:100A900006C02223C1F70D900020A1F7D001FA0172
:100AA000A193B08308957AE0979F902D879F802D22
:100AB000910D11240895CF92DF92EF92FF920F9340
:100AC0001F93CF93DF938C016A01FA01838180FF2A
:100AD0001AC016161706BCF47B01E8010EC0C60149
:100AE0000E94F307FFEF8F3F9F0769F089930894F7
:100AF000E108F1088A30910521F021E0E216F104C5
:100B000071F7188202C000E010E0C801DF91CF91B8
:100B10001F910F91FF90EF90DF90CF900895CF93AA
:100B2000DF93CDB7DEB7FE0136966191719180916A
:100B30009B0490919C04AF010E94D605DF91CF9158
:100B4000089560919B0470919C040E94330808955D
:100B50000F931F93CF93DF938C01E0919B04F0914F
:100B60009C04838181FF1AC0C0E0D0E005C01995C4
:100B7000009711F0CFEFDFEFF80181918F016091C5
:100B80009B0470919C04DB011896ED91FC911997E0
:100B9000882369F78AE01995009711F0CFEFDFEF0E
:100BA000CE01DF91CF911F910F9108952F923F9227
:100BB0004F925F926F927F928F929F92AF92BF926D
:100BC000CF92DF92EF92FF920F931F93CF93DF9319
:100BD000CDB7DEB72D970FB6F894DEBF0FBECDBFF1
:100BE0003C017D876C875A01FC0117821682838144
:100BF00081FFC8C12E010894411C511CF30193814F
:100C0000EC85FD8593FD859193FF8191FD87EC87B0
:100C1000882309F4B3C1853241F493FD859193FF94
:100C20008191FD87EC87853229F490E0B3010E9421
:100C30003308E4CFFF24EE2410E01032B0F48B32FE
:100C400069F08C3228F4803251F0833271F40BC099
:100C50008D3239F0803349F411602CC01260146079
:100C600029C0186027C0106125C017FD2EC0282F8D
:100C700020532A3098F416FF08C08F2D880FF82EC5
:100C8000FF0CFF0CF80EF20E15C08E2D880FE82E0B
:100C9000EE0CEE0CE80EE20E10620CC08E3221F467
:100CA00016FD6CC1106406C08C3611F4106802C0C9
:100CB000883659F4EC85FD8593FD859193FF8191EC
:100CC000FD87EC87882309F0B8CF982F955493308F
:100CD00018F09052933038F424E030E0A20EB31EA6
:100CE0003FE339830FC0833631F0833781F083359A
:100CF00009F05AC022C0F5018081898322E030E0EA
:100D0000A20EB31E21E0C22ED12C420114C092E0EB
:100D1000292E312C2A0C3B1CF5018080918016FF76
:100D200003C06F2D70E002C06FEF7FEFC4010E941F
:100D3000E8076C0151011F7715C082E0282E312C85
:100D40002A0C3B1CF5018080918016FF03C06F2D9B
:100D500070E002C06FEF7FEFC4010E94DD076C01FD
:100D60001068510113FD1CC006C080E290E0B30181
:100D70000E943308EA948E2D90E0C816D906A8F395
:100D80000FC0F40117FD859117FF81914F0190E08D
:100D9000B3010E943308E110EA940894C108D10815
:100DA000C114D10471F7E7C0843611F0893651F5CA
:100DB000F50117FF07C080819181A281B38124E0F2
:100DC00030E008C080819181AA2797FDA095BA2FB5
:100DD00022E030E0A20EB31E012F0F76B7FF08C04D
:100DE000B095A095909581959F4FAF4FBF4F0068EC
:100DF000BC01CD01A2012AE030E00E945F08D82E9C
:100E0000D4183FC0853721F41F7E2AE030E020C08F
:100E1000197F8F36A9F0803720F4883509F0AEC0ED
:100E20000BC0803721F0883709F0A8C001C01061DD
:100E300014FF09C0146007C014FF08C0166006C084
:100E400028E030E005C020E130E002C020E132E0DF
:100E5000F50117FF07C0608171818281938144E0B1
:100E600050E006C06081718180E090E042E050E097
:100E7000A40EB51EA2010E945F08D82ED418012F1F
:100E80000F7706FF09C00E7FDF1430F404FF06C0A1
:100E900002FD04C00F7E02C01D2D01C01F2D802F3A
:100EA00090E004FF0CC0FE01ED0DF11D2081203308
:100EB00011F4097E09C002FF06C01E5F05C08678D6
:100EC0009070009709F01F5F802E992403FD12C0D7
:100ED00000FF0DC0FD2C1E1550F4FE0CF11A1E2D46
:100EE00006C080E290E0B3010E9433081F5F1E1528
:100EF000C0F304C01E1510F4E11A01C0EE2484FEF4
:100F00000FC080E390E0B3010E94330882FE1FC04F
:100F100081FE03C088E590E010C088E790E00DC036
:100F2000C40186789070009791F081FC02C080E245
:100F300001C08BE207FD8DE290E0B3010E9433080F
:100F400006C080E390E0B3010E943308FA94DF14F6
:100F5000C0F3DA94F201ED0DF11D808190E0B30150
:100F60000E943308DD20A9F706C080E290E0B301BB
:100F70000E943308EA94EE20C1F740CEF301868147
:100F8000978102C08FEF9FEF2D960FB6F894DEBFCA
:100F90000FBECDBFDF91CF911F910F91FF90EF90CA
:100FA000DF90CF90BF90AF909F908F907F906F9089
:100FB0005F904F903F902F900895FC0105906150F5
:100FC00070400110D8F7809590958E0F9F1F08955F
:100FD000FC016150704001900110D8F78095909508
:100FE0008E0F9F1F0895CF93DF93EC012B8120FF7D
:100FF00035C026FF09C02F7B2B838E819F810196F0
:101000009F838E838A8128C022FF0FC0E881F981E7
:101010008081992787FD9095009719F420622B8392
:101020001DC03196F983E88311C0EA85FB85CE01A6
:10103000199597FF0BC02B813FEF8F3F930711F45A
:1010400080E101C080E2822B8B8308C02E813F812A
:101050002F5F3F4F3F832E8390E002C08FEF9FEFC3
:10106000DF91CF9108950F931F93CF93DF938C015E
:10107000EB018B8181FF1BC082FF0DC02E813F8160
:101080008C819D812817390764F4E881F9810193E7
:10109000F983E88306C0E885F985802F19950097C4
:1010A00031F48E819F8101969F838E8302C00FEF62
:1010B0001FEFC801DF91CF911F910F910895FA01A1
:1010C000AA27283051F1203181F1E8946F936E7F87
:1010D0006E5F7F4F8F4F9F4FAF4FB1E03ED0B4E078
:1010E0003CD0670F781F891F9A1FA11D680F791FB9
:1010F0008A1F911DA11D6A0F711D811D911DA11DCA
:1011000020D009F468943F912AE0269F11243019D9
:10111000305D3193DEF6CF010895462F4770405D74
:101120004193B3E00FD0C9F7F6CF462F4F70405D23
:101130004A3318F0495D31FD4052419302D0A9F77E
:10114000EACFB4E0A6959795879577956795BA9578
:10115000C9F700976105710508959B01AC010A2E3E
:1011600006945795479537952795BA95C9F7620F15
:0E117000731F841F951FA01D0895F894FFCFD4
:10117E0025642069732061207072696D65206E751B
:10118E006D626572202121210A00636F756E743DB8
:10119E0025640A003E20000A0D0920007072696D58
:1011AE0065006C69737400556E6B6E6F776E20639D
:1011BE006F6D6D616E642E2E2E006C6F676F757481
:1011CE002C20676F6F642062796520212121000039
:1011DE00000001000000000000E10100000000001E
:1011EE000200000000EE01000000002D2D3E2563E0
:0811FE00200000009F04200006
:00000001FF
