:100000000C9472000C9494000C9494000C94940042
:100010000C9494000C9494000C9494000C94940010
:100020000C9494000C9494000C9494000C94940000
:100030000C9494000C9494000C9494000C949400F0
:100040000C9494000C9494000C9494000C949400E0
:100050000C9494000C9494000C9494000C949400D0
:100060000C9494000C9494000C9494000C949400C0
:100070000C9494000C9494000C9494000C949400B0
:100080000C9494000C9494000C9494000C949400A0
:100090000C9494000C9494000C9494000C94940090
:1000A0000C9494000C9494000C9494000C94940080
:1000B0000C9494000C9494000C9494000C94940070
:1000C0000C9494000C9494000C9494000C94940060
:1000D0000C9494000C9494000C9494000C94940050
:1000E0000C94940011241FBECFEFD1E2DEBFCDBF30
:1000F00000E00CBF12E0A0E0B2E0E0E2F2E000E0DD
:100100000BBF02C007900D92A630B107D9F71BBEF6
:1001100012E0A6E0B2E001C01D92A730B107E1F7FE
:100120000E94FD000C940E010C9400008FEF809350
:100130000B0180930A01089510920B0110920602A0
:1001400008958FEF80930B0180930602089521E0BC
:1001500030E002C0220F331F8A95E2F7209580918C
:10016000060228232093060220930B01089521E024
:1001700030E002C0220F331F8A95E2F78091060219
:10018000822B8093060280930B01089580958093C3
:10019000060280930B0108951092C50087E08093BA
:1001A000C400E0ECF0E0808182608083E1ECF0E06C
:1001B0008081886080830895CF93C82F8A3019F496
:1001C0008DE00E94DC0087EA91E60197F1F700C01C
:1001D0000000C093C60081E090E0CF910895CF93D6
:1001E000DF93EC0102C00E94DC0089918823D9F7DB
:1001F00081E090E0DF91CF9108950E94CC00C1E4AE
:100200008C2F0E94DC00CF5FCB35D1F78AE00E94B3
:10021000DC0080E092E00E94EF00FFCFF894FFCF77
:06022000414243440A00C4
:00000001FF
